{
  "contractName": "AssetTokenisation",
  "abi": [
    {
      "constant": false,
      "inputs": [
        {
          "name": "assetId",
          "type": "bytes32"
        },
        {
          "name": "assetDescription",
          "type": "string"
        },
        {
          "name": "numberOfTokens",
          "type": "uint256"
        },
        {
          "name": "pricePerToken",
          "type": "uint256"
        }
      ],
      "name": "addAsset",
      "outputs": [],
      "payable": false,
      "stateMutability": "nonpayable",
      "type": "function"
    },
    {
      "constant": true,
      "inputs": [
        {
          "name": "assetId",
          "type": "bytes32"
        },
        {
          "name": "user",
          "type": "address"
        }
      ],
      "name": "getShareholderShares",
      "outputs": [
        {
          "name": "",
          "type": "uint256"
        }
      ],
      "payable": false,
      "stateMutability": "view",
      "type": "function"
    },
    {
      "constant": false,
      "inputs": [
        {
          "name": "assetId",
          "type": "bytes32"
        }
      ],
      "name": "buy",
      "outputs": [
        {
          "name": "",
          "type": "uint256"
        }
      ],
      "payable": true,
      "stateMutability": "payable",
      "type": "function"
    },
    {
      "constant": false,
      "inputs": [
        {
          "name": "assetId",
          "type": "bytes32"
        },
        {
          "name": "tokensToSell",
          "type": "uint256"
        }
      ],
      "name": "sell",
      "outputs": [],
      "payable": false,
      "stateMutability": "nonpayable",
      "type": "function"
    },
    {
      "constant": true,
      "inputs": [
        {
          "name": "assetId",
          "type": "bytes32"
        }
      ],
      "name": "getAssetDetails",
      "outputs": [
        {
          "name": "",
          "type": "string"
        },
        {
          "name": "",
          "type": "uint256"
        },
        {
          "name": "",
          "type": "uint256"
        },
        {
          "name": "",
          "type": "uint256"
        }
      ],
      "payable": false,
      "stateMutability": "view",
      "type": "function"
    }
  ],
  "bytecode": "0x6060604052341561000f57600080fd5b6108948061001e6000396000f30060606040526004361061006d576000357c0100000000000000000000000000000000000000000000000000000000900463ffffffff168063069f80311461007257806382b88d0b146100ee5780639c9a106114610148578063b592de3a14610178578063c4381674146101a8575b600080fd5b341561007d57600080fd5b6100ec60048080356000191690602001909190803590602001908201803590602001908080601f0160208091040260200160405190810160405280939291908181526020018383808284378201915050505050509190803590602001909190803590602001909190505061025d565b005b34156100f957600080fd5b61013260048080356000191690602001909190803573ffffffffffffffffffffffffffffffffffffffff16906020019091905050610335565b6040518082815260200191505060405180910390f35b61016260048080356000191690602001909190505061039d565b6040518082815260200191505060405180910390f35b341561018357600080fd5b6101a6600480803560001916906020019091908035906020019091905050610496565b005b34156101b357600080fd5b6101cd600480803560001916906020019091905050610640565b6040518080602001858152602001848152602001838152602001828103825286818151815260200191508051906020019080838360005b8381101561021f578082015181840152602081019050610204565b50505050905090810190601f16801561024c5780820380516001836020036101000a031916815260200191505b509550505050505060405180910390f35b826000808660001916600019168152602001908152602001600020600201908051906020019061028e9291906107af565b50806000808660001916600019168152602001908152602001600020600101819055508160008086600019166000191681526020019081526020016000206000018190555033600080866000191660001916815260200190815260200160002060030160006101000a81548173ffffffffffffffffffffffffffffffffffffffff021916908373ffffffffffffffffffffffffffffffffffffffff16021790555050505050565b6000806000846000191660001916815260200190815260200160002060040160008373ffffffffffffffffffffffffffffffffffffffff1673ffffffffffffffffffffffffffffffffffffffff16815260200190815260200160002060000154905092915050565b600080600080846000191660001916815260200190815260200160002060010154348115156103c857fe5b04905060008084600019166000191681526020019081526020016000206000015481111515156103f757600080fd5b80600080856000191660001916815260200190815260200160002060040160003373ffffffffffffffffffffffffffffffffffffffff1673ffffffffffffffffffffffffffffffffffffffff168152602001908152602001600020600001600082825401925050819055508060008085600019166000191681526020019081526020016000206000016000828254039250508190555080915050919050565b600080836000191660001916815260200190815260200160002060040160003373ffffffffffffffffffffffffffffffffffffffff1673ffffffffffffffffffffffffffffffffffffffff16815260200190815260200160002060000154811115151561050257600080fd5b3073ffffffffffffffffffffffffffffffffffffffff163160008084600019166000191681526020019081526020016000206001015482021115151561054757600080fd5b80600080846000191660001916815260200190815260200160002060040160003373ffffffffffffffffffffffffffffffffffffffff1673ffffffffffffffffffffffffffffffffffffffff16815260200190815260200160002060000160008282540392505081905550806000808460001916600019168152602001908152602001600020600001600082825401925050819055503373ffffffffffffffffffffffffffffffffffffffff166108fc60008085600019166000191681526020019081526020016000206001015483029081150290604051600060405180830381858888f19350505050151561063c57600080fd5b5050565b61064861082f565b60008060008060008660001916600019168152602001908152602001600020600201600080876000191660001916815260200190815260200160002060000154600080886000191660001916815260200190815260200160002060010154600080896000191660001916815260200190815260200160002060040160003373ffffffffffffffffffffffffffffffffffffffff1673ffffffffffffffffffffffffffffffffffffffff16815260200190815260200160002060000154838054600181600116156101000203166002900480601f0160208091040260200160405190810160405280929190818152602001828054600181600116156101000203166002900480156107995780601f1061076e57610100808354040283529160200191610799565b820191906000526020600020905b81548152906001019060200180831161077c57829003601f168201915b5050505050935093509350935093509193509193565b828054600181600116156101000203166002900490600052602060002090601f016020900481019282601f106107f057805160ff191683800117855561081e565b8280016001018555821561081e579182015b8281111561081d578251825591602001919060010190610802565b5b50905061082b9190610843565b5090565b602060405190810160405280600081525090565b61086591905b80821115610861576000816000905550600101610849565b5090565b905600a165627a7a723058209897ad7247c174d514cbc471373979817d85d3848f528f974835779b7ddc32c00029",
  "source": "pragma solidity ^0.4.18;\r\n\r\ncontract AssetTokenisation {\r\n\r\n    struct Shareholder {\r\n        uint tokensOwned;\r\n    }\r\n\r\n    struct Asset {\r\n        uint availableTokens;\r\n        uint tokenPrice;\r\n\r\n        string assetDescription;\r\n        address owner;\r\n\r\n        mapping (address => Shareholder) shareholderInfo;\r\n    }\r\n\r\n    mapping (bytes32 => Asset) assetList;\r\n\r\n    function addAsset(bytes32 assetId, string assetDescription, uint numberOfTokens, uint pricePerToken) public {\r\n        assetList[assetId].assetDescription = assetDescription;\r\n        assetList[assetId].tokenPrice = pricePerToken;\r\n        assetList[assetId].availableTokens = numberOfTokens;\r\n        assetList[assetId].owner = msg.sender;\r\n    }\r\n\r\n    function buy(bytes32 assetId) payable public returns (uint) {\r\n        uint tokensToBuy = msg.value / assetList[assetId].tokenPrice;\r\n        require(tokensToBuy <= assetList[assetId].availableTokens);\r\n\r\n        assetList[assetId].shareholderInfo[msg.sender].tokensOwned += tokensToBuy;\r\n        assetList[assetId].availableTokens -= tokensToBuy;\r\n\r\n        return tokensToBuy;\r\n    }\r\n\r\n    function sell(bytes32 assetId, uint tokensToSell) public {\r\n        require(tokensToSell <= assetList[assetId].shareholderInfo[msg.sender].tokensOwned);\r\n        require((tokensToSell * assetList[assetId].tokenPrice) <= this.balance);\r\n\r\n        assetList[assetId].shareholderInfo[msg.sender].tokensOwned -= tokensToSell;\r\n        assetList[assetId].availableTokens += tokensToSell;\r\n\r\n        msg.sender.transfer(tokensToSell * assetList[assetId].tokenPrice);\r\n    }\r\n\r\n\r\n    function getAssetDetails(bytes32 assetId) view public returns (string, uint, uint, uint) {\r\n        return (assetList[assetId].assetDescription, \r\n            assetList[assetId].availableTokens, \r\n            assetList[assetId].tokenPrice,\r\n            assetList[assetId].shareholderInfo[msg.sender].tokensOwned);\r\n    }\r\n\r\n    function getShareholderShares(bytes32 assetId, address user) view public returns (uint) {\r\n        return assetList[assetId].shareholderInfo[user].tokensOwned;\r\n    }\r\n}",
  "sourcePath": "C:\\Users\\ac\\OneDrive\\Documents\\Test Projects\\Asset Tokenization\\contracts\\AssetTokenisation.sol",
  "compiler": {
    "name": "solc",
    "version": "0.4.18+commit.9cf6e910.Emscripten.clang"
  },
  "schemaVersion": "1.0.1",
  "updatedAt": "2018-01-31T12:18:56.006Z"
}